:1000000000000220AD010000D9010000D90100006C
:10001000D9010000D9010000D9010000D901000078
:10002000D9010000D9010000D9010000D901000068
:10003000D9010000D9010000D9010000D901000058
:10004000D9010000D9010000D9010000D901000048
:10005000D9010000D9010000D9010000D901000038
:10006000D9010000D9010000D9010000D901000028
:10007000D9010000D9010000D9010000D901000018
:10008000D9010000D9010000D9010000D901000008
:10009000D9010000D9010000D9010000D9010000F8
:1000A000D9010000D9010000D9010000D9010000E8
:1000B000D9010000D9010000D9010000D9010000D8
:1000C000D9010000D9010000D9010000D9010000C8
:1000D000D9010000D9010000D901000010B5054C7C
:1000E000237833B9044B13B10448AFF300800123E4
:1000F000237010BD7000002000000000DC13000021
:10010000084B10B51BB108480849AFF300800848F8
:10011000036803B910BD074B002BFBD0BDE81040AE
:10012000184700BF00000000DC130000740000202E
:100130006C00002000000000154B002B08BF134B83
:100140009D46A3F5803A00218B460F461348144A7A
:10015000121A01F0D4F80F4B002B00D098470E4B29
:10016000002B00D098470020002104000D000D480E
:10017000002802D00C48AFF3008001F08FF8200077
:10018000290000F097F801F075F800BF00000800A2
:1001900000000220000000000000000070000020AD
:1001A000900000200000000000000000064880478A
:1001B0000649074A074B9A42BEBF51F8040B42F862
:1001C000040BF8E7FFF7B8FFDD010000E0140000C2
:1001D0000000002070000020FEE700BF80B400AFE8
:1001E000BD465DF8047B704780B485B000AF786091
:1001F000194B5B69DBB203F00F03DBB29B00FB73AF
:10020000154B1B6903F0C0039B09DAB2FB7B134358
:10021000FB737B68FA7B9A700F4B1B69DBB203F0B0
:100220003F03DAB27B685A700B4B9B69DBB223F059
:100230000F03FB73084BDB6903F0F0031B09DAB211
:10024000FB7B1343FB737B68FA7B1A701437BD4644
:100250005DF8047B704700BFD0FF0FE080B400AFB3
:10026000044BDB6C1B0EDBB21846BD465DF8047B0D
:10027000704700BFB081E00F80B582B000AFFFF7DC
:10028000EDFF0346FB713B1D1846FFF7ADFFFB7901
:100290000F2B0AD93B79022B07D9054A044B1B685F
:1002A00023F0500343F0100313600837BD4680BDB0
:1002B000C0800C4080B586B000AFFFF7DDFF074B74
:1002C0007B61074B3B61074BFB607B691B68BB6035
:1002D0003B691B687B6000233B60FEE7FA81E00F0F
:1002E000FC81E00FFE81E00F03685A004CBF43F031
:1002F000004323F000431844704700BF2DE9F04F3E
:1003000083B099B34B1E17460546984601930026C5
:1003100006EB080404EBD47464104FEAC40A05EB3E
:100320000A0B5846FFF7E0FF019B8146A3420AF102
:10033000080028440ED0FFF7D7FFB94500F1FF3081
:1003400004D9B4420CD004F1FF38E1E7B84203D23B
:10035000661CDDE7B945F4D8584603B0BDE8F08F18
:100360004FF0000B584603B0BDE8F08F8B4658465F
:1003700003B0BDE8F08F00BF012807D0022807D0E6
:10038000044B00280CBF18460020704702487047F5
:10039000024870478D0A0000910A0000950A00008B
:1003A00030B5254B83B004468D1E7BB3284601A98A
:1003B000AFF3008020B301992A46FFF79FFF05465F
:1003C000F0B1FFF791FF6B68A064012B12D0002BF6
:1003D00005F1040021DBFFF787FF0023E0642365BC
:1003E0000368002B1DDBFFF77FFF00232061184609
:1003F00003B030BD002323610523184603B030BD90
:10040000002323610923184603B030BD0B490C4B70
:100410000846591AC9100191CEE70123E06423650B
:10042000DEE7C3F30360FFF7A7FF002820610CBFDE
:1004300009230023DBE700BF0000000010140000C8
:10044000E0140000036810B5DA07044606D49B07E1
:1004500000F1480009D500F085FC2368590709D54B
:100460001A070ED5DB0613D510BD00F073FC236808
:100470005907F5D404F1D00000F07CFC23681A077A
:10048000F0D404F5A87000F07DFC2368DB06EBD403
:1004900004F5E870BDE8104000F0B8BC03680BB18B
:1004A000184470471846704709207047704700BFCE
:1004B00070B504460D4608E02A6C2369626101208C
:1004C00021462A469847082808D12046296CFFF77C
:1004D00067FF06460028EFD000F0C4FE0728FBD1D6
:1004E0003046296CFFF7E2FF281D00F027FC00BF13
:1004F0002DE9F0470646ADF5727D03AD0C1D17469C
:100500000FCC0FC50FCC0FC50FCC0FC594E80F0053
:1005100002AC4FF0000ED6F80C80D6F8189085E8A3
:100520000F003046216CC4F800E0FFF739FF0546A4
:10053000002F0CBF09270A277DB1A36B47F01001DC
:100540008DE810020120636432463346C04778BB11
:1005500028460DF5727DBDE8F087236C2146736156
:100560004FF4F0727AA800F0BFFE336931467AAAE0
:1005700038469847889B82468DE810023946636466
:10058000012032463346C04790B920467AA94FF43D
:10059000F07200F0A9FEBAF1080F06D13046216CC6
:1005A000FFF7FEFE09270546C6E7BAF1070F04D09C
:1005B00009200DF5727DBDE8F0872846216CFFF714
:1005C00075FF03A800F0BAFB406C7047F0B5CB6B29
:1005D000F9B00B640E1D01AD0F4604460FCE0FC5DA
:1005E0000FCE0FC50FCE0FC596E80F004FF0FF36A8
:1005F00085E80F00009606E0236921466A46984781
:100600000828054608D120461099FFF7C9FE0028A2
:10061000F2D0092079B0F0BD6846FFF713FF062D30
:10062000F7D120463946FFF743FF00BF30B4DD6BFA
:10063000C160826119461D64002230BC58E700BFCA
:1006400070B54369C66804460D460B6426B10122A5
:10065000FFF74EFF00F006FE0369214602202A46FE
:100660009847072807D0082803D120462946FFF7D6
:100670001FFF00F0F7FD3046296CFFF717FF281D1C
:1006800000F05CFBC26832B110B4CC6B00220C6489
:100690005DF8044B2CE799E7704700BF836813B1FE
:1006A000014601201847704700B5042907D8DFE844
:1006B00001F00309060909000BB90F2A05D9022028
:1006C0005DF804FB01205DF804FB00EB8202526838
:1006D0001846019B1A605DF804FB00BF00B585B0A9
:1006E0000A4603AB002100930B46FFF7DDFF03989A
:1006F00005B05DF804FB00BF00B5042907D8DFE8AA
:1007000001F00309060909000BB90F2A05D90220D7
:100710005DF804FB01205DF804FB019900EB820207
:100720000968184651605DF804FB00BF10B50C461F
:1007300084B004AB43F8042D0021009322460B46FD
:10074000FFF7DAFF04B010BDF0B5D36BADF50F7D48
:100750001364151D17AC07460E460FCD0FC40FCD01
:100760000FC40FCD0FC495E80F004FF0FF3584E89C
:100770000F00169511E016A86A46FFF7D7FF16A8D6
:100780003146B84780B9049B0820694616AA9847A5
:100790000528044609D0092806D026996846FFF79F
:1007A000FFFD0C210028E6D0092416A8FFF74AFE19
:1007B00020460DF50F7DF0BD2DE9F04FCC6C904635
:1007C00022688BB004340D460792089400F00309A8
:1007D0001E46002B64D11202032307928DF8256078
:1007E0008DF824302B6DB9F1020F08BFAC6B13F0FC
:1007F000010343D100F00800C2B2039201932768BD
:10080000002F3DD0022E47D02788B4F802A0043430
:10081000AB6C2AF0010B40460F219B44FFF75EFFB3
:10082000834537D827F001039B4458452CBF00204F
:1008300001200AF0010A07F0010747EA4A0ABAF163
:10084000010F43D03AD3BAF1020F1FD1236823F02E
:1008500000420292B9F1000F7BD138B1039A002A0D
:1008600000F08380029A002A00F0A680002B7ADB39
:10087000029B03F1010A04EB8A04C0E70023019301
:10088000022E40DDFFF710FE002842D009200BB0F9
:10089000BDE8F08F0020CCE7D4F804A00834B7E717
:1008A000022B9FDC130CDFB2120402218DF82530DD
:1008B00004EB870407928DF8241093E7B9F1000F39
:1008C00002D0002840F0AD80043498E7B9F1000F61
:1008D00026D1B0B194E80C00D70F9A1CD6D005F100
:1008E00058020133069200F09280201DFFF7D6FDDA
:1008F0003A46014606AB2846AFF30080002840F098
:10090000B58008347BE7404607A900F019FB0028B2
:10091000BCD1019B002B59D108200BB0BDE8F08F52
:1009200040460D212F6AFFF7D9FE8742E9D1AB6A15
:100930009C42E6D12046FFF7D7FC0F2102464046F5
:10094000FFF7F4FE40462A460021FFF7EFFE07209E
:100950009DE740460D212F6AFFF7C0FE874245D034
:100960002368002B84DA043482E7029B23B305F169
:1009700058030596039F04F1040ADDF808B0CDF88A
:1009800010901E4602E0D9454F4615D050460696B7
:10099000FFF784FD0022014606AB2846AFF3008036
:1009A00007F101090AF1040A0028ECD0029BDDF8E6
:1009B00010909F42059ED3D140460D21FFF78EFE39
:1009C000069B2862AC626B62062060E70F214046FE
:1009D000FFF784FE0E2102464046FFF7A7FE404681
:1009E0000F21294AFFF7A2FE072050E7AB6A9C427D
:1009F000B6D1042202990027A318A962EF622A63E4
:100A00006B632368BB421FDB0123019330E7404641
:100A10000D21FFF763FE2862069B6B62AC62062025
:100A200035E72046FFF760FC04340646AC632846F1
:100A3000AFF3008000283FF429AF404632460F2133
:100A4000FFF774FE072022E70846013004EB800020
:100A5000FFF74AFC0F2102464046FFF767FE40467B
:100A600039462A46FFF762FE072010E707460D21A8
:100A70004046FFF733FE022F2862CDD12B46069A5F
:100A800043F82C2F6B62C9E700000000002393E6B7
:100A9000012391E602238FE6F0B50546C5B004298F
:100AA0000CD8DFE801F056030B300E00012B4FEAA3
:100AB000124496B265D0052B00F08380022045B029
:100AC000F0BD002BFAD1102AF8D82B68DC0600F113
:100AD000E98022AE3046019200F0A2F9A86B019A9B
:100AE0000023012404FA03F1114203D00168043009
:100AF00046F823100133042BF4D1A863304600F0EC
:100B000085F90020DBE7032BD8D1140C97B23B19F1
:100B1000102BD3D82B681E0700F1E48022AE30469C
:100B20007F0000F051F906EBC4027B1EAC6B57B19D
:100B30002146043A51F8040B013B42F8040F581CBB
:100B4000F8D104EB87043046AC6300F01BF90020B9
:100B5000B5E7002BB2D1AC6B97B2281D012606FA7F
:100B600003F1394203F1010302D02168043401602A
:100B7000102B00F10400F2D112F400501FD1AC632D
:100B80009DE73219102A99D80F2C97D82968002789
:100B9000C80754D422A8019300F0E0F8019B19E0A3
:100BA00008463746012B00F097800F2CA86302D827
:100BB00022A800F0D7F817B102A800F0DBF8002057
:100BC0007DE73719202F3FF679AF0F2C30D9374604
:100BD000002E44D1A96B3246002EE1D000278E466C
:100BE00044A84FEA420C00EBC4000CF1FF328C38F1
:100BF0005EF8046B013A40F8046F561CF8D101EB23
:100C00008C00002FCED02246102C44A938BF1022D1
:100C100001EBC202A2F5C47201467800043A01EB6E
:100C2000800051F8046B814242F8046FF9D1B9E7B2
:100C3000102F41D92A68103FD007114610D521F056
:100C40000102052B2A60019328465BD021F00301A5
:100C500040F8481B00F082F8019B002F4AD02A6818
:100C600051075BD4012B63D00F2C04D822A8019329
:100C700000F07CF8019B002FACD002A8019300F09B
:100C80007DF8019BC4F11002002AA96BA7DC224663
:100C9000102C44A838BF102200EBC202A2F5C47287
:100CA0007800BBE723F010032B6005F5E870019294
:100CB00000F0B6F8019A0CE72968C8071DD5284648
:100CC00021F0010242F0020240F8482B0193002774
:100CD00000F04CF8019BC9E70430A86322A800F09B
:100CE00039F86CE723F008032B6005F5A87000F0D5
:100CF0006BF813E7012B3FF44DAF0F2C98BF002783
:100D0000B4D967E742F0020240F8482B00F02EF811
:100D1000019B002FAAD02A685107A5D5284622F0AA
:100D2000040240F8D02B019300F028F8019B99E7CA
:100D300022A8019300F012F8019BA3E700F134010F
:100D400091E838009C46A6464CF8045D90E8FF0FF9
:100D5000E54600BD90EC210B704700BF80EC210BF5
:100D6000704700BF90EC200B704700BF80EC200B59
:100D7000704700BFD0EC200B704700BFC0EC200BC9
:100D8000704700BFF0EC0201F0EC0211F0EC022120
:100D9000F0EC0231F0EC0241F0EC0251F0EC0261B7
:100DA000F0EC0271F0EC0281F0EC0291F0EC02A1A7
:100DB000F0EC02B1F0EC02C1F0EC02D1F0EC02E197
:100DC000F0EC02F1704700BFE0EC0201E0EC021130
:100DD000E0EC0221E0EC0231E0EC0241E0EC0251F7
:100DE000E0EC0261E0EC0271E0EC0281E0EC0291E7
:100DF000E0EC02A1E0EC02B1E0EC02C1E0EC02D1D7
:100E0000E0EC02E1E0EC02F1704700BFB0FC0181D0
:100E1000B0FC0191B0FC01A1B0FC01B1704700BF72
:100E2000A0FC0181A0FC0191A0FC01A1A0FC01B1EA
:100E3000704700BFEC4600B52DE900502DE9FF1FBB
:100E40004FF000032DE90C0001A9FFF7BFFBDDF80F
:100E500040E012B0704700BFEC4600B52DE90050ED
:100E60002DE9FF1F4FF000032DE90C0001A9FFF74A
:100E7000E7FBDDF840E012B0704700BFEC4600B57C
:100E80002DE900502DE9FF1F4FF000032DE90C0064
:100E900001A9FFF7F7FBDDF840E012B0704700BF93
:100EA000EC4600B52DE900502DE9FF1F4FF000037F
:100EB0002DE90C0001ABFFF7B9FBDDF840E012B003
:100EC000704700BFEC4600B52DE900502DE9FF1F2B
:100ED0004FF000032DE90C0001AAFFF735FCDDF807
:100EE00040E012B0704700BF037A1BB9437A43B9A0
:100EF000B02070475A1E036802721A020260180E70
:100F000070474268013B10B4437213680321141DFB
:100F100001721A02446002605DF8044B180E7047BB
:100F200000B585B003AB002100930C220B46FFF700
:100F3000BBFB039805B05DF804FB00BFF0E700BF02
:100F40002DE9F04306460D4685B04FF000082846CF
:100F5000FFF7CAFFB028044600F0B58020F07F01FB
:100F600011F0FF0120D000F0F003802B7AD0902BFD
:100F700036D0A02B49D0B02B5CD0C02B00F089809C
:100F800000F0F803D02B0BD100F00702013242F43D
:100F90000022304601210523FFF77EFD0028D6D030
:100FA000092005B0BDE8F0830DF10C090B46870060
:100FB000CDF8009030460D22FFF776FBFFB2039B81
:100FC000043760064FF000014CBFDF1BFF18CDF85F
:100FD00000900B4630460D220397FFF78DFBB6E7D6
:100FE00000F00D030D2BDBD003AF002100F00F024A
:100FF0000B4600973046FFF757FB002100970B4642
:1010000030460D22FFF778FBA1E7C3434FF47F6220
:1010100003F007031A41010702F47F624FF0000159
:1010200048BF42F480420B463046FFF735FD0028AA
:10103000B6D18CE7B1284CD0B2285DD0B32800F0EF
:101040008A8000F0FC03B42BAAD000F00702013222
:10105000012142F400220B463046FFF71DFD002817
:101060009ED174E72846FFF73FFF24022043B0F5E6
:10107000004F95D004010021A2B20B463046FFF785
:101080000BFD00288CD114F4004F18BF4FF001085D
:101090005DE7C62872D0C7287AD000F0F803C02BCD
:1010A00000F08980C82800F0A580C9287FF478AFB7
:1010B0002846FFF719FF00F00F02013200F0F000A0
:1010C00042EA003265E7B8F1000F00F082800020AC
:1010D00067E72846FFF708FF024600283FF460AFA5
:1010E00010F0F0017FF45CAF30460B46FFF7D4FC04
:1010F00000287FF455AF2AE700210DF10C090D22DD
:101100000B46CDF800903046FFF7CEFA2846FFF7A1
:10111000EBFE02064FF002040CD5039B00F07F00AB
:10112000A040034428460393FFF7DEFE030604F1C4
:101130000704F2D4039B00F07F00A04003F5017385
:1011400000211C18CDF800900B4630460D22039468
:10115000FFF7D2FAFBE62846FFF7C6FE00F00F02C3
:10116000013200F0F000012142EA00320B46304625
:10117000FFF792FC00287FF413AFE8E62846FFF75C
:10118000B3FE00F00F02013200F0F0000321EBE7A4
:101190002846FFF7A9FE024600283FF401AF10F0F1
:1011A000F0037FF4FDAE30460421FFF775FC002804
:1011B0007FF4F6AECBE600F00F020132032142F4D9
:1011C00020220B463046FFF767FC00287FF4E8AE8C
:1011D000BDE603AC41460E22434600943046FFF77D
:1011E00063FA0094304641460F224346FFF784FAE3
:1011F0004046D6E62846FFF777FE00F0F00200F002
:101200000F031032013343EA0232C2E610B5C36C59
:1012100084B003205A688DF80C00DC791202083380
:10122000084601A901928DF80D400293FFF788FE50
:1012300004B010BD08B5FFF781FE806C08BD00BF8B
:1012400008B5FFF77BFEC36CD87903EB800008304C
:1012500008BD00BF08B500F005F800BF08B500F0F4
:1012600001F800BF08B5062000F07AF8012000F070
:10127000A3F8000008B5074B044613B10021AFF3F3
:101280000080054B1868836A03B19847204600F038
:1012900093F800BF00000000D81300000E4B70B59B
:1012A0001E460E4C0025E41AA410A54204D056F8A0
:1012B000253098470135F8E700F080F8084B094CD5
:1012C0001E46E41AA4100025A54204D056F8253085
:1012D00098470135F8E770BD6400002064000020E5
:1012E000640000206800002010B5431E0A449142AB
:1012F00004D011F8014B03F8014FF8E710BD034685
:101300000244934202D003F8011BFAE770471F29F9
:1013100038B504460D4604D9162303604FF0FF305C
:1013200038BD426C12B152F821304BB9204600F062
:1013300031F82A4601462046BDE8384000F018B88A
:10134000012B0AD0591C03D116230360012038BD9C
:10135000002442F8254028469847002038BD000068
:10136000024B01461868FFF7D2BF00BF60000020A3
:1013700038B5074C0023054608461146236000F0A7
:1013800013F8431C02D1236803B12B6038BD00BFA2
:101390008C00002000F000B8024B58221A604FF079
:1013A000FF3070478C000020024B58221A604FF02B
:1013B000FF3070478C000020FEE700BFF8B500BF8B
:1013C000F8BC08BC9E467047F8B500BFF8BC08BC26
:1013D0009E4670474300000000000020000000000F
:1013E00001970181B0B008840000000005970181D9
:1013F000B0B008840000000008B10181B0B00084E2
:101400000000000008B10181B0B0008400000000BD
:1014100028EDFF7F0100000060EEFF7FC4FFFF7F2B
:1014200094EEFF7FC8FFFF7FC0EEFF7F010000004A
:1014300070EFFF7FB0A902800CF0FF7FB0B0A880F2
:101440005CF0FF7F0100000068F0FF7FB0B0AA8071
:10145000A0F0FF7FAE71B28070F1FF7F010000004D
:101460006CF1FF7FAB3F3880C4F1FF7F01000000CB
:10147000D0F1FF7FB0B0AA800CF2FF7F0100000026
:10148000C8F2FF7FAB0EB28030F3FF7FB0AF0A80AF
:10149000FCF5FF7F0100000000F6FF7FAB3F0480FA
:1014A0009CF8FF7F0100000078FAFF7F0084048031
:1014B0008CFAFF7F0100000088FAFF7FB0AD048046
:1014C0004CFDFF7FB0A803806CFDFF7F2CFFFF7FEA
:1014D00070FDFF7F30FFFF7F7CFDFF7F010000007C
:1014E00000000000000000000000000000000000FC
:1014F00000000000000000000000000000000000EC
:10150000D4130000000000000000000000000000F4
:1015100000000000000000000000000000000000CB
:1015200000000000000000000000000000000000BB
:1015300000000000000000000000000000000000AB
:101540000000002001010000DD000000000000009C
:04000003000001AD4B
:00000001FF
